{
  "_format": "hh-sol-artifact-1",
  "contractName": "Marketplace",
  "sourceName": "src/backend/contracts/Marketplace.sol",
  "abi": [
    {
      "inputs": [
        {
          "internalType": "string",
          "name": "_name",
          "type": "string"
        },
        {
          "internalType": "string",
          "name": "_symbol",
          "type": "string"
        },
        {
          "internalType": "uint256",
          "name": "_feePercent",
          "type": "uint256"
        }
      ],
      "stateMutability": "nonpayable",
      "type": "constructor"
    },
    {
      "anonymous": false,
      "inputs": [
        {
          "indexed": true,
          "internalType": "address",
          "name": "owner",
          "type": "address"
        },
        {
          "indexed": true,
          "internalType": "address",
          "name": "approved",
          "type": "address"
        },
        {
          "indexed": true,
          "internalType": "uint256",
          "name": "tokenId",
          "type": "uint256"
        }
      ],
      "name": "Approval",
      "type": "event"
    },
    {
      "anonymous": false,
      "inputs": [
        {
          "indexed": true,
          "internalType": "address",
          "name": "owner",
          "type": "address"
        },
        {
          "indexed": true,
          "internalType": "address",
          "name": "operator",
          "type": "address"
        },
        {
          "indexed": false,
          "internalType": "bool",
          "name": "approved",
          "type": "bool"
        }
      ],
      "name": "ApprovalForAll",
      "type": "event"
    },
    {
      "anonymous": false,
      "inputs": [
        {
          "indexed": false,
          "internalType": "uint256",
          "name": "itemId",
          "type": "uint256"
        },
        {
          "indexed": true,
          "internalType": "address",
          "name": "nft",
          "type": "address"
        },
        {
          "indexed": false,
          "internalType": "uint256",
          "name": "tokenId",
          "type": "uint256"
        },
        {
          "indexed": false,
          "internalType": "uint256",
          "name": "price",
          "type": "uint256"
        },
        {
          "indexed": true,
          "internalType": "address",
          "name": "seller",
          "type": "address"
        },
        {
          "indexed": true,
          "internalType": "address",
          "name": "buyer",
          "type": "address"
        }
      ],
      "name": "Bought",
      "type": "event"
    },
    {
      "anonymous": false,
      "inputs": [
        {
          "indexed": false,
          "internalType": "uint256",
          "name": "itemId",
          "type": "uint256"
        },
        {
          "indexed": true,
          "internalType": "address",
          "name": "nft",
          "type": "address"
        },
        {
          "indexed": false,
          "internalType": "uint256",
          "name": "tokenId",
          "type": "uint256"
        },
        {
          "indexed": false,
          "internalType": "uint256",
          "name": "price",
          "type": "uint256"
        },
        {
          "indexed": true,
          "internalType": "address",
          "name": "seller",
          "type": "address"
        }
      ],
      "name": "Offered",
      "type": "event"
    },
    {
      "anonymous": false,
      "inputs": [
        {
          "indexed": true,
          "internalType": "address",
          "name": "from",
          "type": "address"
        },
        {
          "indexed": true,
          "internalType": "address",
          "name": "to",
          "type": "address"
        },
        {
          "indexed": true,
          "internalType": "uint256",
          "name": "tokenId",
          "type": "uint256"
        }
      ],
      "name": "Transfer",
      "type": "event"
    },
    {
      "inputs": [
        {
          "internalType": "address",
          "name": "to",
          "type": "address"
        },
        {
          "internalType": "uint256",
          "name": "tokenId",
          "type": "uint256"
        }
      ],
      "name": "approve",
      "outputs": [],
      "stateMutability": "nonpayable",
      "type": "function"
    },
    {
      "inputs": [
        {
          "internalType": "address",
          "name": "owner",
          "type": "address"
        }
      ],
      "name": "balanceOf",
      "outputs": [
        {
          "internalType": "uint256",
          "name": "",
          "type": "uint256"
        }
      ],
      "stateMutability": "view",
      "type": "function"
    },
    {
      "inputs": [],
      "name": "feeAccount",
      "outputs": [
        {
          "internalType": "address payable",
          "name": "",
          "type": "address"
        }
      ],
      "stateMutability": "view",
      "type": "function"
    },
    {
      "inputs": [],
      "name": "feePercent",
      "outputs": [
        {
          "internalType": "uint256",
          "name": "",
          "type": "uint256"
        }
      ],
      "stateMutability": "view",
      "type": "function"
    },
    {
      "inputs": [
        {
          "internalType": "uint256",
          "name": "tokenId",
          "type": "uint256"
        }
      ],
      "name": "getApproved",
      "outputs": [
        {
          "internalType": "address",
          "name": "",
          "type": "address"
        }
      ],
      "stateMutability": "view",
      "type": "function"
    },
    {
      "inputs": [
        {
          "internalType": "uint256",
          "name": "_itemId",
          "type": "uint256"
        }
      ],
      "name": "getTotalPrice",
      "outputs": [
        {
          "internalType": "uint256",
          "name": "",
          "type": "uint256"
        }
      ],
      "stateMutability": "view",
      "type": "function"
    },
    {
      "inputs": [
        {
          "internalType": "address",
          "name": "owner",
          "type": "address"
        },
        {
          "internalType": "address",
          "name": "operator",
          "type": "address"
        }
      ],
      "name": "isApprovedForAll",
      "outputs": [
        {
          "internalType": "bool",
          "name": "",
          "type": "bool"
        }
      ],
      "stateMutability": "view",
      "type": "function"
    },
    {
      "inputs": [],
      "name": "itemCount",
      "outputs": [
        {
          "internalType": "uint256",
          "name": "",
          "type": "uint256"
        }
      ],
      "stateMutability": "view",
      "type": "function"
    },
    {
      "inputs": [
        {
          "internalType": "uint256",
          "name": "",
          "type": "uint256"
        }
      ],
      "name": "items",
      "outputs": [
        {
          "internalType": "uint256",
          "name": "itemId",
          "type": "uint256"
        },
        {
          "internalType": "contract IERC721",
          "name": "nft",
          "type": "address"
        },
        {
          "internalType": "uint256",
          "name": "tokenId",
          "type": "uint256"
        },
        {
          "internalType": "uint256",
          "name": "price",
          "type": "uint256"
        },
        {
          "internalType": "address payable",
          "name": "seller",
          "type": "address"
        },
        {
          "internalType": "bool",
          "name": "sold",
          "type": "bool"
        }
      ],
      "stateMutability": "view",
      "type": "function"
    },
    {
      "inputs": [
        {
          "internalType": "contract IERC721",
          "name": "_nft",
          "type": "address"
        },
        {
          "internalType": "uint256",
          "name": "_tokenId",
          "type": "uint256"
        },
        {
          "internalType": "uint256",
          "name": "_price",
          "type": "uint256"
        }
      ],
      "name": "makeItem",
      "outputs": [],
      "stateMutability": "nonpayable",
      "type": "function"
    },
    {
      "inputs": [
        {
          "internalType": "string",
          "name": "_tokenURI",
          "type": "string"
        }
      ],
      "name": "mint",
      "outputs": [
        {
          "internalType": "uint256",
          "name": "",
          "type": "uint256"
        }
      ],
      "stateMutability": "nonpayable",
      "type": "function"
    },
    {
      "inputs": [],
      "name": "name",
      "outputs": [
        {
          "internalType": "string",
          "name": "",
          "type": "string"
        }
      ],
      "stateMutability": "view",
      "type": "function"
    },
    {
      "inputs": [
        {
          "internalType": "uint256",
          "name": "tokenId",
          "type": "uint256"
        }
      ],
      "name": "ownerOf",
      "outputs": [
        {
          "internalType": "address",
          "name": "",
          "type": "address"
        }
      ],
      "stateMutability": "view",
      "type": "function"
    },
    {
      "inputs": [
        {
          "internalType": "uint256",
          "name": "_itemId",
          "type": "uint256"
        }
      ],
      "name": "purchaseItem",
      "outputs": [],
      "stateMutability": "payable",
      "type": "function"
    },
    {
      "inputs": [
        {
          "internalType": "address",
          "name": "from",
          "type": "address"
        },
        {
          "internalType": "address",
          "name": "to",
          "type": "address"
        },
        {
          "internalType": "uint256",
          "name": "tokenId",
          "type": "uint256"
        }
      ],
      "name": "safeTransferFrom",
      "outputs": [],
      "stateMutability": "nonpayable",
      "type": "function"
    },
    {
      "inputs": [
        {
          "internalType": "address",
          "name": "from",
          "type": "address"
        },
        {
          "internalType": "address",
          "name": "to",
          "type": "address"
        },
        {
          "internalType": "uint256",
          "name": "tokenId",
          "type": "uint256"
        },
        {
          "internalType": "bytes",
          "name": "data",
          "type": "bytes"
        }
      ],
      "name": "safeTransferFrom",
      "outputs": [],
      "stateMutability": "nonpayable",
      "type": "function"
    },
    {
      "inputs": [
        {
          "internalType": "address",
          "name": "operator",
          "type": "address"
        },
        {
          "internalType": "bool",
          "name": "approved",
          "type": "bool"
        }
      ],
      "name": "setApprovalForAll",
      "outputs": [],
      "stateMutability": "nonpayable",
      "type": "function"
    },
    {
      "inputs": [
        {
          "internalType": "bytes4",
          "name": "interfaceId",
          "type": "bytes4"
        }
      ],
      "name": "supportsInterface",
      "outputs": [
        {
          "internalType": "bool",
          "name": "",
          "type": "bool"
        }
      ],
      "stateMutability": "view",
      "type": "function"
    },
    {
      "inputs": [],
      "name": "symbol",
      "outputs": [
        {
          "internalType": "string",
          "name": "",
          "type": "string"
        }
      ],
      "stateMutability": "view",
      "type": "function"
    },
    {
      "inputs": [],
      "name": "tokenCount",
      "outputs": [
        {
          "internalType": "uint256",
          "name": "",
          "type": "uint256"
        }
      ],
      "stateMutability": "view",
      "type": "function"
    },
    {
      "inputs": [
        {
          "internalType": "uint256",
          "name": "tokenId",
          "type": "uint256"
        }
      ],
      "name": "tokenURI",
      "outputs": [
        {
          "internalType": "string",
          "name": "",
          "type": "string"
        }
      ],
      "stateMutability": "view",
      "type": "function"
    },
    {
      "inputs": [
        {
          "internalType": "address",
          "name": "from",
          "type": "address"
        },
        {
          "internalType": "address",
          "name": "to",
          "type": "address"
        },
        {
          "internalType": "uint256",
          "name": "tokenId",
          "type": "uint256"
        }
      ],
      "name": "transferFrom",
      "outputs": [],
      "stateMutability": "nonpayable",
      "type": "function"
    }
  ],
  "bytecode": "0x60c06040523480156200001157600080fd5b50604051620040a1380380620040a183398181016040528101906200003791906200027a565b828281600090816200004a919062000555565b5080600190816200005c919062000555565b50505060016007819055503373ffffffffffffffffffffffffffffffffffffffff1660808173ffffffffffffffffffffffffffffffffffffffff16815250508060a081815250505050506200063c565b6000604051905090565b600080fd5b600080fd5b600080fd5b600080fd5b6000601f19601f8301169050919050565b7f4e487b7100000000000000000000000000000000000000000000000000000000600052604160045260246000fd5b6200011582620000ca565b810181811067ffffffffffffffff82111715620001375762000136620000db565b5b80604052505050565b60006200014c620000ac565b90506200015a82826200010a565b919050565b600067ffffffffffffffff8211156200017d576200017c620000db565b5b6200018882620000ca565b9050602081019050919050565b60005b83811015620001b557808201518184015260208101905062000198565b60008484015250505050565b6000620001d8620001d2846200015f565b62000140565b905082815260208101848484011115620001f757620001f6620000c5565b5b6200020484828562000195565b509392505050565b600082601f830112620002245762000223620000c0565b5b815162000236848260208601620001c1565b91505092915050565b6000819050919050565b62000254816200023f565b81146200026057600080fd5b50565b600081519050620002748162000249565b92915050565b600080600060608486031215620002965762000295620000b6565b5b600084015167ffffffffffffffff811115620002b757620002b6620000bb565b5b620002c5868287016200020c565b935050602084015167ffffffffffffffff811115620002e957620002e8620000bb565b5b620002f7868287016200020c565b92505060406200030a8682870162000263565b9150509250925092565b600081519050919050565b7f4e487b7100000000000000000000000000000000000000000000000000000000600052602260045260246000fd5b600060028204905060018216806200036757607f821691505b6020821081036200037d576200037c6200031f565b5b50919050565b60008190508160005260206000209050919050565b60006020601f8301049050919050565b600082821b905092915050565b600060088302620003e77fffffffffffffffffffffffffffffffffffffffffffffffffffffffffffffffff82620003a8565b620003f38683620003a8565b95508019841693508086168417925050509392505050565b6000819050919050565b600062000436620004306200042a846200023f565b6200040b565b6200023f565b9050919050565b6000819050919050565b620004528362000415565b6200046a62000461826200043d565b848454620003b5565b825550505050565b600090565b6200048162000472565b6200048e81848462000447565b505050565b5b81811015620004b657620004aa60008262000477565b60018101905062000494565b5050565b601f8211156200050557620004cf8162000383565b620004da8462000398565b81016020851015620004ea578190505b62000502620004f98562000398565b83018262000493565b50505b505050565b600082821c905092915050565b60006200052a600019846008026200050a565b1980831691505092915050565b600062000545838362000517565b9150826002028217905092915050565b620005608262000314565b67ffffffffffffffff8111156200057c576200057b620000db565b5b6200058882546200034e565b62000595828285620004ba565b600060209050601f831160018114620005cd5760008415620005b8578287015190505b620005c4858262000537565b86555062000634565b601f198416620005dd8662000383565b60005b828110156200060757848901518255600182019150602085019450602081019050620005e0565b8683101562000627578489015162000623601f89168262000517565b8355505b6001600288020188555050505b505050505050565b60805160a051613a316200067060003960008181610a320152610d050152600081816109510152610ee50152613a316000f3fe6080604052600436106101355760003560e01c806395d89b41116100ab578063c87b56dd1161006f578063c87b56dd1461043f578063ca7dd3751461047c578063d38ea5bf146104b9578063d85d3d27146104d5578063e985e9c514610512578063fa00afc71461054f57610135565b806395d89b41146103555780639f181b5e14610380578063a22cb465146103ab578063b88d4fde146103d4578063bfb231d2146103fd57610135565b806342842e0e116100fd57806342842e0e146102315780636352211e1461025a57806365e17c9d146102975780636bfb0d01146102c257806370a08231146102ed5780637fd6f15c1461032a57610135565b806301ffc9a71461013a57806306fdde0314610177578063081812fc146101a2578063095ea7b3146101df57806323b872dd14610208575b600080fd5b34801561014657600080fd5b50610161600480360381019061015c91906123ae565b610578565b60405161016e91906123f6565b60405180910390f35b34801561018357600080fd5b5061018c61065a565b60405161019991906124a1565b60405180910390f35b3480156101ae57600080fd5b506101c960048036038101906101c491906124f9565b6106ec565b6040516101d69190612567565b60405180910390f35b3480156101eb57600080fd5b50610206600480360381019061020191906125ae565b610732565b005b34801561021457600080fd5b5061022f600480360381019061022a91906125ee565b610849565b005b34801561023d57600080fd5b50610258600480360381019061025391906125ee565b6108a9565b005b34801561026657600080fd5b50610281600480360381019061027c91906124f9565b6108c9565b60405161028e9190612567565b60405180910390f35b3480156102a357600080fd5b506102ac61094f565b6040516102b99190612662565b60405180910390f35b3480156102ce57600080fd5b506102d7610973565b6040516102e4919061268c565b60405180910390f35b3480156102f957600080fd5b50610314600480360381019061030f91906126a7565b610979565b604051610321919061268c565b60405180910390f35b34801561033657600080fd5b5061033f610a30565b60405161034c919061268c565b60405180910390f35b34801561036157600080fd5b5061036a610a54565b60405161037791906124a1565b60405180910390f35b34801561038c57600080fd5b50610395610ae6565b6040516103a2919061268c565b60405180910390f35b3480156103b757600080fd5b506103d260048036038101906103cd9190612700565b610aec565b005b3480156103e057600080fd5b506103fb60048036038101906103f69190612875565b610b02565b005b34801561040957600080fd5b50610424600480360381019061041f91906124f9565b610b64565b60405161043696959493929190612957565b60405180910390f35b34801561044b57600080fd5b50610466600480360381019061046191906124f9565b610bed565b60405161047391906124a1565b60405180910390f35b34801561048857600080fd5b506104a3600480360381019061049e91906124f9565b610cff565b6040516104b0919061268c565b60405180910390f35b6104d360048036038101906104ce91906124f9565b610d62565b005b3480156104e157600080fd5b506104fc60048036038101906104f79190612a59565b6110ea565b604051610509919061268c565b60405180910390f35b34801561051e57600080fd5b5061053960048036038101906105349190612aa2565b611126565b60405161054691906123f6565b60405180910390f35b34801561055b57600080fd5b5061057660048036038101906105719190612b20565b6111ba565b005b60007f80ac58cd000000000000000000000000000000000000000000000000000000007bffffffffffffffffffffffffffffffffffffffffffffffffffffffff1916827bffffffffffffffffffffffffffffffffffffffffffffffffffffffff1916148061064357507f5b5e139f000000000000000000000000000000000000000000000000000000007bffffffffffffffffffffffffffffffffffffffffffffffffffffffff1916827bffffffffffffffffffffffffffffffffffffffffffffffffffffffff1916145b80610653575061065282611446565b5b9050919050565b60606000805461066990612ba2565b80601f016020809104026020016040519081016040528092919081815260200182805461069590612ba2565b80156106e25780601f106106b7576101008083540402835291602001916106e2565b820191906000526020600020905b8154815290600101906020018083116106c557829003601f168201915b5050505050905090565b60006106f7826114b0565b6004600083815260200190815260200160002060009054906101000a900473ffffffffffffffffffffffffffffffffffffffff169050919050565b600061073d826108c9565b90508073ffffffffffffffffffffffffffffffffffffffff168373ffffffffffffffffffffffffffffffffffffffff16036107ad576040517f08c379a00000000000000000000000000000000000000000000000000000000081526004016107a490612c45565b60405180910390fd5b8073ffffffffffffffffffffffffffffffffffffffff166107cc6114fb565b73ffffffffffffffffffffffffffffffffffffffff1614806107fb57506107fa816107f56114fb565b611126565b5b61083a576040517f08c379a000000000000000000000000000000000000000000000000000000000815260040161083190612cd7565b60405180910390fd5b6108448383611503565b505050565b61085a6108546114fb565b826115bc565b610899576040517f08c379a000000000000000000000000000000000000000000000000000000000815260040161089090612d69565b60405180910390fd5b6108a4838383611651565b505050565b6108c483838360405180602001604052806000815250610b02565b505050565b6000806108d58361194a565b9050600073ffffffffffffffffffffffffffffffffffffffff168173ffffffffffffffffffffffffffffffffffffffff1603610946576040517f08c379a000000000000000000000000000000000000000000000000000000000815260040161093d90612dd5565b60405180910390fd5b80915050919050565b7f000000000000000000000000000000000000000000000000000000000000000081565b60095481565b60008073ffffffffffffffffffffffffffffffffffffffff168273ffffffffffffffffffffffffffffffffffffffff16036109e9576040517f08c379a00000000000000000000000000000000000000000000000000000000081526004016109e090612e67565b60405180910390fd5b600360008373ffffffffffffffffffffffffffffffffffffffff1673ffffffffffffffffffffffffffffffffffffffff168152602001908152602001600020549050919050565b7f000000000000000000000000000000000000000000000000000000000000000081565b606060018054610a6390612ba2565b80601f0160208091040260200160405190810160405280929190818152602001828054610a8f90612ba2565b8015610adc5780601f10610ab157610100808354040283529160200191610adc565b820191906000526020600020905b815481529060010190602001808311610abf57829003601f168201915b5050505050905090565b60085481565b610afe610af76114fb565b8383611987565b5050565b610b13610b0d6114fb565b836115bc565b610b52576040517f08c379a0000000000000000000000000000000000000000000000000000000008152600401610b4990612d69565b60405180910390fd5b610b5e84848484611af3565b50505050565b600a6020528060005260406000206000915090508060000154908060010160009054906101000a900473ffffffffffffffffffffffffffffffffffffffff16908060020154908060030154908060040160009054906101000a900473ffffffffffffffffffffffffffffffffffffffff16908060040160149054906101000a900460ff16905086565b6060610bf8826114b0565b6000600660008481526020019081526020016000208054610c1890612ba2565b80601f0160208091040260200160405190810160405280929190818152602001828054610c4490612ba2565b8015610c915780601f10610c6657610100808354040283529160200191610c91565b820191906000526020600020905b815481529060010190602001808311610c7457829003601f168201915b505050505090506000610ca2611b4f565b90506000815103610cb7578192505050610cfa565b600082511115610cec578082604051602001610cd4929190612ec3565b60405160208183030381529060405292505050610cfa565b610cf584611b66565b925050505b919050565b600060647f00000000000000000000000000000000000000000000000000000000000000006064610d309190612f16565b600a600085815260200190815260200160002060030154610d519190612f4a565b610d5b9190612fbb565b9050919050565b610d6a611bce565b6000610d7582610cff565b90506000600a60008481526020019081526020016000209050600083118015610da057506009548311155b610ddf576040517f08c379a0000000000000000000000000000000000000000000000000000000008152600401610dd690613038565b60405180910390fd5b81341015610e22576040517f08c379a0000000000000000000000000000000000000000000000000000000008152600401610e19906130ca565b60405180910390fd5b8060040160149054906101000a900460ff1615610e74576040517f08c379a0000000000000000000000000000000000000000000000000000000008152600401610e6b90613136565b60405180910390fd5b8060040160009054906101000a900473ffffffffffffffffffffffffffffffffffffffff1673ffffffffffffffffffffffffffffffffffffffff166108fc82600301549081150290604051600060405180830381858888f19350505050158015610ee2573d6000803e3d6000fd5b507f000000000000000000000000000000000000000000000000000000000000000073ffffffffffffffffffffffffffffffffffffffff166108fc826003015484610f2d9190613156565b9081150290604051600060405180830381858888f19350505050158015610f58573d6000803e3d6000fd5b5060018160040160146101000a81548160ff0219169083151502179055508060010160009054906101000a900473ffffffffffffffffffffffffffffffffffffffff1673ffffffffffffffffffffffffffffffffffffffff166323b872dd303384600201546040518463ffffffff1660e01b8152600401610fdb9392919061318a565b600060405180830381600087803b158015610ff557600080fd5b505af1158015611009573d6000803e3d6000fd5b505050503373ffffffffffffffffffffffffffffffffffffffff168160040160009054906101000a900473ffffffffffffffffffffffffffffffffffffffff1673ffffffffffffffffffffffffffffffffffffffff168260010160009054906101000a900473ffffffffffffffffffffffffffffffffffffffff1673ffffffffffffffffffffffffffffffffffffffff167f8b4c9c8a607d67b321582dd8461041b1dc2ceeca70c8b7f37f8e02095cf2e76d86856002015486600301546040516110d5939291906131c1565b60405180910390a450506110e7611c1d565b50565b6000600860008154809291906110ff906131f8565b919050555061111033600854611c27565b61111c60085483611c45565b6008549050919050565b6000600560008473ffffffffffffffffffffffffffffffffffffffff1673ffffffffffffffffffffffffffffffffffffffff16815260200190815260200160002060008373ffffffffffffffffffffffffffffffffffffffff1673ffffffffffffffffffffffffffffffffffffffff16815260200190815260200160002060009054906101000a900460ff16905092915050565b6111c2611bce565b60008111611205576040517f08c379a00000000000000000000000000000000000000000000000000000000081526004016111fc9061328c565b60405180910390fd5b60096000815480929190611218906131f8565b91905055508273ffffffffffffffffffffffffffffffffffffffff166323b872dd3330856040518463ffffffff1660e01b815260040161125a9392919061318a565b600060405180830381600087803b15801561127457600080fd5b505af1158015611288573d6000803e3d6000fd5b505050506040518060c0016040528060095481526020018473ffffffffffffffffffffffffffffffffffffffff1681526020018381526020018281526020013373ffffffffffffffffffffffffffffffffffffffff16815260200160001515815250600a600060095481526020019081526020016000206000820151816000015560208201518160010160006101000a81548173ffffffffffffffffffffffffffffffffffffffff021916908373ffffffffffffffffffffffffffffffffffffffff160217905550604082015181600201556060820151816003015560808201518160040160006101000a81548173ffffffffffffffffffffffffffffffffffffffff021916908373ffffffffffffffffffffffffffffffffffffffff16021790555060a08201518160040160146101000a81548160ff0219169083151502179055509050503373ffffffffffffffffffffffffffffffffffffffff168373ffffffffffffffffffffffffffffffffffffffff167f655a0cf9c8db81512be9a76dc1c5ae5380b8816ce6ad659cd61b715e2999d59a6009548585604051611431939291906131c1565b60405180910390a3611441611c1d565b505050565b60007f01ffc9a7000000000000000000000000000000000000000000000000000000007bffffffffffffffffffffffffffffffffffffffffffffffffffffffff1916827bffffffffffffffffffffffffffffffffffffffffffffffffffffffff1916149050919050565b6114b981611cb2565b6114f8576040517f08c379a00000000000000000000000000000000000000000000000000000000081526004016114ef90612dd5565b60405180910390fd5b50565b600033905090565b816004600083815260200190815260200160002060006101000a81548173ffffffffffffffffffffffffffffffffffffffff021916908373ffffffffffffffffffffffffffffffffffffffff160217905550808273ffffffffffffffffffffffffffffffffffffffff16611576836108c9565b73ffffffffffffffffffffffffffffffffffffffff167f8c5be1e5ebec7d5bd14f71427d1e84f3dd0314c0f7b2291e5b200ac8c7c3b92560405160405180910390a45050565b6000806115c8836108c9565b90508073ffffffffffffffffffffffffffffffffffffffff168473ffffffffffffffffffffffffffffffffffffffff16148061160a57506116098185611126565b5b8061164857508373ffffffffffffffffffffffffffffffffffffffff16611630846106ec565b73ffffffffffffffffffffffffffffffffffffffff16145b91505092915050565b8273ffffffffffffffffffffffffffffffffffffffff16611671826108c9565b73ffffffffffffffffffffffffffffffffffffffff16146116c7576040517f08c379a00000000000000000000000000000000000000000000000000000000081526004016116be9061331e565b60405180910390fd5b600073ffffffffffffffffffffffffffffffffffffffff168273ffffffffffffffffffffffffffffffffffffffff1603611736576040517f08c379a000000000000000000000000000000000000000000000000000000000815260040161172d906133b0565b60405180910390fd5b6117438383836001611cf3565b8273ffffffffffffffffffffffffffffffffffffffff16611763826108c9565b73ffffffffffffffffffffffffffffffffffffffff16146117b9576040517f08c379a00000000000000000000000000000000000000000000000000000000081526004016117b09061331e565b60405180910390fd5b6004600082815260200190815260200160002060006101000a81549073ffffffffffffffffffffffffffffffffffffffff02191690556001600360008573ffffffffffffffffffffffffffffffffffffffff1673ffffffffffffffffffffffffffffffffffffffff168152602001908152602001600020600082825403925050819055506001600360008473ffffffffffffffffffffffffffffffffffffffff1673ffffffffffffffffffffffffffffffffffffffff16815260200190815260200160002060008282540192505081905550816002600083815260200190815260200160002060006101000a81548173ffffffffffffffffffffffffffffffffffffffff021916908373ffffffffffffffffffffffffffffffffffffffff160217905550808273ffffffffffffffffffffffffffffffffffffffff168473ffffffffffffffffffffffffffffffffffffffff167fddf252ad1be2c89b69c2b068fc378daa952ba7f163c4a11628f55a4df523b3ef60405160405180910390a46119458383836001611cf9565b505050565b60006002600083815260200190815260200160002060009054906101000a900473ffffffffffffffffffffffffffffffffffffffff169050919050565b8173ffffffffffffffffffffffffffffffffffffffff168373ffffffffffffffffffffffffffffffffffffffff16036119f5576040517f08c379a00000000000000000000000000000000000000000000000000000000081526004016119ec9061341c565b60405180910390fd5b80600560008573ffffffffffffffffffffffffffffffffffffffff1673ffffffffffffffffffffffffffffffffffffffff16815260200190815260200160002060008473ffffffffffffffffffffffffffffffffffffffff1673ffffffffffffffffffffffffffffffffffffffff16815260200190815260200160002060006101000a81548160ff0219169083151502179055508173ffffffffffffffffffffffffffffffffffffffff168373ffffffffffffffffffffffffffffffffffffffff167f17307eab39ab6107e8899845ad3d59bd9653f200f220920489ca2b5937696c3183604051611ae691906123f6565b60405180910390a3505050565b611afe848484611651565b611b0a84848484611cff565b611b49576040517f08c379a0000000000000000000000000000000000000000000000000000000008152600401611b40906134ae565b60405180910390fd5b50505050565b606060405180602001604052806000815250905090565b6060611b71826114b0565b6000611b7b611b4f565b90506000815111611b9b5760405180602001604052806000815250611bc6565b80611ba584611e86565b604051602001611bb6929190612ec3565b6040516020818303038152906040525b915050919050565b600260075403611c13576040517f08c379a0000000000000000000000000000000000000000000000000000000008152600401611c0a9061351a565b60405180910390fd5b6002600781905550565b6001600781905550565b611c41828260405180602001604052806000815250611f54565b5050565b611c4e82611cb2565b611c8d576040517f08c379a0000000000000000000000000000000000000000000000000000000008152600401611c84906135ac565b60405180910390fd5b80600660008481526020019081526020016000209081611cad919061376e565b505050565b60008073ffffffffffffffffffffffffffffffffffffffff16611cd48361194a565b73ffffffffffffffffffffffffffffffffffffffff1614159050919050565b50505050565b50505050565b6000611d208473ffffffffffffffffffffffffffffffffffffffff16611faf565b15611e79578373ffffffffffffffffffffffffffffffffffffffff1663150b7a02611d496114fb565b8786866040518563ffffffff1660e01b8152600401611d6b9493929190613895565b6020604051808303816000875af1925050508015611da757506040513d601f19601f82011682018060405250810190611da491906138f6565b60015b611e29573d8060008114611dd7576040519150601f19603f3d011682016040523d82523d6000602084013e611ddc565b606091505b506000815103611e21576040517f08c379a0000000000000000000000000000000000000000000000000000000008152600401611e18906134ae565b60405180910390fd5b805181602001fd5b63150b7a0260e01b7bffffffffffffffffffffffffffffffffffffffffffffffffffffffff1916817bffffffffffffffffffffffffffffffffffffffffffffffffffffffff191614915050611e7e565b600190505b949350505050565b606060006001611e9584611fd2565b01905060008167ffffffffffffffff811115611eb457611eb361274a565b5b6040519080825280601f01601f191660200182016040528015611ee65781602001600182028036833780820191505090505b509050600082602001820190505b600115611f49578080600190039150507f3031323334353637383961626364656600000000000000000000000000000000600a86061a8153600a8581611f3d57611f3c612f8c565b5b04945060008503611ef4575b819350505050919050565b611f5e8383612125565b611f6b6000848484611cff565b611faa576040517f08c379a0000000000000000000000000000000000000000000000000000000008152600401611fa1906134ae565b60405180910390fd5b505050565b6000808273ffffffffffffffffffffffffffffffffffffffff163b119050919050565b600080600090507a184f03e93ff9f4daa797ed6e38ed64bf6a1f0100000000000000008310612030577a184f03e93ff9f4daa797ed6e38ed64bf6a1f010000000000000000838161202657612025612f8c565b5b0492506040810190505b6d04ee2d6d415b85acef8100000000831061206d576d04ee2d6d415b85acef8100000000838161206357612062612f8c565b5b0492506020810190505b662386f26fc10000831061209c57662386f26fc10000838161209257612091612f8c565b5b0492506010810190505b6305f5e10083106120c5576305f5e10083816120bb576120ba612f8c565b5b0492506008810190505b61271083106120ea5761271083816120e0576120df612f8c565b5b0492506004810190505b6064831061210d576064838161210357612102612f8c565b5b0492506002810190505b600a831061211c576001810190505b80915050919050565b600073ffffffffffffffffffffffffffffffffffffffff168273ffffffffffffffffffffffffffffffffffffffff1603612194576040517f08c379a000000000000000000000000000000000000000000000000000000000815260040161218b9061396f565b60405180910390fd5b61219d81611cb2565b156121dd576040517f08c379a00000000000000000000000000000000000000000000000000000000081526004016121d4906139db565b60405180910390fd5b6121eb600083836001611cf3565b6121f481611cb2565b15612234576040517f08c379a000000000000000000000000000000000000000000000000000000000815260040161222b906139db565b60405180910390fd5b6001600360008473ffffffffffffffffffffffffffffffffffffffff1673ffffffffffffffffffffffffffffffffffffffff16815260200190815260200160002060008282540192505081905550816002600083815260200190815260200160002060006101000a81548173ffffffffffffffffffffffffffffffffffffffff021916908373ffffffffffffffffffffffffffffffffffffffff160217905550808273ffffffffffffffffffffffffffffffffffffffff16600073ffffffffffffffffffffffffffffffffffffffff167fddf252ad1be2c89b69c2b068fc378daa952ba7f163c4a11628f55a4df523b3ef60405160405180910390a461233e600083836001611cf9565b5050565b6000604051905090565b600080fd5b600080fd5b60007fffffffff0000000000000000000000000000000000000000000000000000000082169050919050565b61238b81612356565b811461239657600080fd5b50565b6000813590506123a881612382565b92915050565b6000602082840312156123c4576123c361234c565b5b60006123d284828501612399565b91505092915050565b60008115159050919050565b6123f0816123db565b82525050565b600060208201905061240b60008301846123e7565b92915050565b600081519050919050565b600082825260208201905092915050565b60005b8381101561244b578082015181840152602081019050612430565b60008484015250505050565b6000601f19601f8301169050919050565b600061247382612411565b61247d818561241c565b935061248d81856020860161242d565b61249681612457565b840191505092915050565b600060208201905081810360008301526124bb8184612468565b905092915050565b6000819050919050565b6124d6816124c3565b81146124e157600080fd5b50565b6000813590506124f3816124cd565b92915050565b60006020828403121561250f5761250e61234c565b5b600061251d848285016124e4565b91505092915050565b600073ffffffffffffffffffffffffffffffffffffffff82169050919050565b600061255182612526565b9050919050565b61256181612546565b82525050565b600060208201905061257c6000830184612558565b92915050565b61258b81612546565b811461259657600080fd5b50565b6000813590506125a881612582565b92915050565b600080604083850312156125c5576125c461234c565b5b60006125d385828601612599565b92505060206125e4858286016124e4565b9150509250929050565b6000806000606084860312156126075761260661234c565b5b600061261586828701612599565b935050602061262686828701612599565b9250506040612637868287016124e4565b9150509250925092565b600061264c82612526565b9050919050565b61265c81612641565b82525050565b60006020820190506126776000830184612653565b92915050565b612686816124c3565b82525050565b60006020820190506126a1600083018461267d565b92915050565b6000602082840312156126bd576126bc61234c565b5b60006126cb84828501612599565b91505092915050565b6126dd816123db565b81146126e857600080fd5b50565b6000813590506126fa816126d4565b92915050565b600080604083850312156127175761271661234c565b5b600061272585828601612599565b9250506020612736858286016126eb565b9150509250929050565b600080fd5b600080fd5b7f4e487b7100000000000000000000000000000000000000000000000000000000600052604160045260246000fd5b61278282612457565b810181811067ffffffffffffffff821117156127a1576127a061274a565b5b80604052505050565b60006127b4612342565b90506127c08282612779565b919050565b600067ffffffffffffffff8211156127e0576127df61274a565b5b6127e982612457565b9050602081019050919050565b82818337600083830152505050565b6000612818612813846127c5565b6127aa565b90508281526020810184848401111561283457612833612745565b5b61283f8482856127f6565b509392505050565b600082601f83011261285c5761285b612740565b5b813561286c848260208601612805565b91505092915050565b6000806000806080858703121561288f5761288e61234c565b5b600061289d87828801612599565b94505060206128ae87828801612599565b93505060406128bf878288016124e4565b925050606085013567ffffffffffffffff8111156128e0576128df612351565b5b6128ec87828801612847565b91505092959194509250565b6000819050919050565b600061291d61291861291384612526565b6128f8565b612526565b9050919050565b600061292f82612902565b9050919050565b600061294182612924565b9050919050565b61295181612936565b82525050565b600060c08201905061296c600083018961267d565b6129796020830188612948565b612986604083018761267d565b612993606083018661267d565b6129a06080830185612653565b6129ad60a08301846123e7565b979650505050505050565b600067ffffffffffffffff8211156129d3576129d261274a565b5b6129dc82612457565b9050602081019050919050565b60006129fc6129f7846129b8565b6127aa565b905082815260208101848484011115612a1857612a17612745565b5b612a238482856127f6565b509392505050565b600082601f830112612a4057612a3f612740565b5b8135612a508482602086016129e9565b91505092915050565b600060208284031215612a6f57612a6e61234c565b5b600082013567ffffffffffffffff811115612a8d57612a8c612351565b5b612a9984828501612a2b565b91505092915050565b60008060408385031215612ab957612ab861234c565b5b6000612ac785828601612599565b9250506020612ad885828601612599565b9150509250929050565b6000612aed82612546565b9050919050565b612afd81612ae2565b8114612b0857600080fd5b50565b600081359050612b1a81612af4565b92915050565b600080600060608486031215612b3957612b3861234c565b5b6000612b4786828701612b0b565b9350506020612b58868287016124e4565b9250506040612b69868287016124e4565b9150509250925092565b7f4e487b7100000000000000000000000000000000000000000000000000000000600052602260045260246000fd5b60006002820490506001821680612bba57607f821691505b602082108103612bcd57612bcc612b73565b5b50919050565b7f4552433732313a20617070726f76616c20746f2063757272656e74206f776e6560008201527f7200000000000000000000000000000000000000000000000000000000000000602082015250565b6000612c2f60218361241c565b9150612c3a82612bd3565b604082019050919050565b60006020820190508181036000830152612c5e81612c22565b9050919050565b7f4552433732313a20617070726f76652063616c6c6572206973206e6f7420746f60008201527f6b656e206f776e6572206f7220617070726f76656420666f7220616c6c000000602082015250565b6000612cc1603d8361241c565b9150612ccc82612c65565b604082019050919050565b60006020820190508181036000830152612cf081612cb4565b9050919050565b7f4552433732313a2063616c6c6572206973206e6f7420746f6b656e206f776e6560008201527f72206f7220617070726f76656400000000000000000000000000000000000000602082015250565b6000612d53602d8361241c565b9150612d5e82612cf7565b604082019050919050565b60006020820190508181036000830152612d8281612d46565b9050919050565b7f4552433732313a20696e76616c696420746f6b656e2049440000000000000000600082015250565b6000612dbf60188361241c565b9150612dca82612d89565b602082019050919050565b60006020820190508181036000830152612dee81612db2565b9050919050565b7f4552433732313a2061646472657373207a65726f206973206e6f74206120766160008201527f6c6964206f776e65720000000000000000000000000000000000000000000000602082015250565b6000612e5160298361241c565b9150612e5c82612df5565b604082019050919050565b60006020820190508181036000830152612e8081612e44565b9050919050565b600081905092915050565b6000612e9d82612411565b612ea78185612e87565b9350612eb781856020860161242d565b80840191505092915050565b6000612ecf8285612e92565b9150612edb8284612e92565b91508190509392505050565b7f4e487b7100000000000000000000000000000000000000000000000000000000600052601160045260246000fd5b6000612f21826124c3565b9150612f2c836124c3565b9250828201905080821115612f4457612f43612ee7565b5b92915050565b6000612f55826124c3565b9150612f60836124c3565b9250828202612f6e816124c3565b91508282048414831517612f8557612f84612ee7565b5b5092915050565b7f4e487b7100000000000000000000000000000000000000000000000000000000600052601260045260246000fd5b6000612fc6826124c3565b9150612fd1836124c3565b925082612fe157612fe0612f8c565b5b828204905092915050565b7f6974656d20646f65736e27742065786973740000000000000000000000000000600082015250565b600061302260128361241c565b915061302d82612fec565b602082019050919050565b6000602082019050818103600083015261305181613015565b9050919050565b7f6e6f7420656e6f75676820657468657220746f20636f766572206974656d207060008201527f7269636520616e64206d61726b65742066656500000000000000000000000000602082015250565b60006130b460338361241c565b91506130bf82613058565b604082019050919050565b600060208201905081810360008301526130e3816130a7565b9050919050565b7f6974656d20616c726561647920736f6c64000000000000000000000000000000600082015250565b600061312060118361241c565b915061312b826130ea565b602082019050919050565b6000602082019050818103600083015261314f81613113565b9050919050565b6000613161826124c3565b915061316c836124c3565b925082820390508181111561318457613183612ee7565b5b92915050565b600060608201905061319f6000830186612558565b6131ac6020830185612558565b6131b9604083018461267d565b949350505050565b60006060820190506131d6600083018661267d565b6131e3602083018561267d565b6131f0604083018461267d565b949350505050565b6000613203826124c3565b91507fffffffffffffffffffffffffffffffffffffffffffffffffffffffffffffffff820361323557613234612ee7565b5b600182019050919050565b7f5072696365206d7573742062652067726561746572207468616e207a65726f00600082015250565b6000613276601f8361241c565b915061328182613240565b602082019050919050565b600060208201905081810360008301526132a581613269565b9050919050565b7f4552433732313a207472616e736665722066726f6d20696e636f72726563742060008201527f6f776e6572000000000000000000000000000000000000000000000000000000602082015250565b600061330860258361241c565b9150613313826132ac565b604082019050919050565b60006020820190508181036000830152613337816132fb565b9050919050565b7f4552433732313a207472616e7366657220746f20746865207a65726f2061646460008201527f7265737300000000000000000000000000000000000000000000000000000000602082015250565b600061339a60248361241c565b91506133a58261333e565b604082019050919050565b600060208201905081810360008301526133c98161338d565b9050919050565b7f4552433732313a20617070726f766520746f2063616c6c657200000000000000600082015250565b600061340660198361241c565b9150613411826133d0565b602082019050919050565b60006020820190508181036000830152613435816133f9565b9050919050565b7f4552433732313a207472616e7366657220746f206e6f6e20455243373231526560008201527f63656976657220696d706c656d656e7465720000000000000000000000000000602082015250565b600061349860328361241c565b91506134a38261343c565b604082019050919050565b600060208201905081810360008301526134c78161348b565b9050919050565b7f5265656e7472616e637947756172643a207265656e7472616e742063616c6c00600082015250565b6000613504601f8361241c565b915061350f826134ce565b602082019050919050565b60006020820190508181036000830152613533816134f7565b9050919050565b7f45524337323155524953746f726167653a2055524920736574206f66206e6f6e60008201527f6578697374656e7420746f6b656e000000000000000000000000000000000000602082015250565b6000613596602e8361241c565b91506135a18261353a565b604082019050919050565b600060208201905081810360008301526135c581613589565b9050919050565b60008190508160005260206000209050919050565b60006020601f8301049050919050565b600082821b905092915050565b60006008830261362e7fffffffffffffffffffffffffffffffffffffffffffffffffffffffffffffffff826135f1565b61363886836135f1565b95508019841693508086168417925050509392505050565b600061366b613666613661846124c3565b6128f8565b6124c3565b9050919050565b6000819050919050565b61368583613650565b61369961369182613672565b8484546135fe565b825550505050565b600090565b6136ae6136a1565b6136b981848461367c565b505050565b5b818110156136dd576136d26000826136a6565b6001810190506136bf565b5050565b601f821115613722576136f3816135cc565b6136fc846135e1565b8101602085101561370b578190505b61371f613717856135e1565b8301826136be565b50505b505050565b600082821c905092915050565b600061374560001984600802613727565b1980831691505092915050565b600061375e8383613734565b9150826002028217905092915050565b61377782612411565b67ffffffffffffffff8111156137905761378f61274a565b5b61379a8254612ba2565b6137a58282856136e1565b600060209050601f8311600181146137d857600084156137c6578287015190505b6137d08582613752565b865550613838565b601f1984166137e6866135cc565b60005b8281101561380e578489015182556001820191506020850194506020810190506137e9565b8683101561382b5784890151613827601f891682613734565b8355505b6001600288020188555050505b505050505050565b600081519050919050565b600082825260208201905092915050565b600061386782613840565b613871818561384b565b935061388181856020860161242d565b61388a81612457565b840191505092915050565b60006080820190506138aa6000830187612558565b6138b76020830186612558565b6138c4604083018561267d565b81810360608301526138d6818461385c565b905095945050505050565b6000815190506138f081612382565b92915050565b60006020828403121561390c5761390b61234c565b5b600061391a848285016138e1565b91505092915050565b7f4552433732313a206d696e7420746f20746865207a65726f2061646472657373600082015250565b600061395960208361241c565b915061396482613923565b602082019050919050565b600060208201905081810360008301526139888161394c565b9050919050565b7f4552433732313a20746f6b656e20616c7265616479206d696e74656400000000600082015250565b60006139c5601c8361241c565b91506139d08261398f565b602082019050919050565b600060208201905081810360008301526139f4816139b8565b905091905056fea26469706673582212208f00274ee4b64ab993223ea5b86600f9c43b24d563da97705ef360727a0db6c164736f6c63430008120033",
  "linkReferences": {},
  "deployedLinkReferences": {}
}